:100000000C94B3010C94FA010C94FA010C94FA01CB
:100010000C94FA010C94FA010C94FA010C94FA0174
:100020000C94FA010C94FA010C947B1A0C944D1B5D
:100030000C9418160C94FA010C94FA010C94FA0121
:100040000C94FA010C94FA010C94FA010C94FA0144
:100050000C94FA010C9471160C94FA010C94FA01A8
:100060000C94FA010C94FA010C94FA010C94FA0124
:100070000C94FA010C94FA010C94FA010C94FA0114
:100080000C94FA010C94FA010C94FA010C94FA0104
:100090000C94FA010C94FA010C94FA010C94FA01F4
:1000A0000C94FA010C94FA010C94FA0169056905A3
:1000B000950595050A070A070A070A07FD0596062A
:1000C000A706A706A207A207B407B407AB07B407A1
:1000D000B407B407A207A207B007B407B407B00774
:1000E000BA1BE11BD91CE11BD91C2D1C501CD91CAF
:1000F000A71CB61C68747470733A2F2F716D6B2E29
:10010000666D2F0A00514D4B20697320746865207D
:1001100062657374207468696E6720657665722104
:10012000001E001F002000210022002300240025C3
:1001300000260027005200510014001A0008001584
:100140000017001C0018000C001200130050004F94
:100150000004001600070009000A000B000D000E45
:10016000000F0028003E003F002B001D001B000672
:100170000019000500110010003600370040004152
:1001800000E000E10001512C00E20034002A0029C7
:10019000003A003B003C003D001E001F00200021F3
:1001A000002200230024002500260027004B004EDB
:1001B0000014001A000800150017001C0018002D7C
:1001C000002E0013004A004D00040016000700092D
:1001D000000A000B0038003300340028003E00877E
:1001E000002B001D001B000600190005003600371B
:1001F000003000310089004900E000E10001512C8D
:1002000000E2002F004C003500420043004400454E
:100210000000000000000000002A2B280000000061
:1002200000000000000000000000000029000000A5
:10023000002C1E3420212224342627252E362D374B
:1002400038271E1F202122232425263333362E371C
:10025000381F0405060708090A0B0C0D0E0F1011B4
:1002600012131415161718191A1B1C1D2F313023C1
:100270002D350405060708090A0B0C0D0E0F101189
:1002800012131415161718191A1B1C1D2F3130358F
:100290004C00000000000000000000000000000012
:1002A000000000000000000000000000000000004E
:1002B00000000000007E0F00D4FFFFFFC700000019
:1002C0007818037300680061007200700069006BA9
:1002D000006500650062006F000000100368007296
:1002E00000610031003100320039000000040309D0
:1002F0000409022200010100A0FA09040000010320
:1003000001010009211101000122400007058103BC
:1003100008000A1201000200000008EDFE000001C2
:10032000000102000105010906A101050719E029E4
:10033000E715002501950875018102950175088171
:10034000010507190029FF150026FF00950675080D
:10035000810005081901290595057501910295018E
:1003600075039101C00011241FBECFEFDAE0DEBF9C
:10037000CDBF04B603FE27C08091EE019091EF013E
:10038000A091F001B091F1018730904BA740B04BA4
:10039000D1F41092EE011092EF011092F001109240
:1003A000F10114BE84B7877F84BF0FB6F894A89577
:1003B00080916000886180936000109260000FBEA1
:1003C000E0E0F8E3099511E0A0E0B1E0E8ECFAE341
:1003D00002C005900D92A232B107D9F721E0A2E246
:1003E000B1E001C01D92AE3EB207E1F70E94E712F4
:1003F0000C94621D0C940000863A2DE5920721F0C2
:10040000873A9D4541F00FC0FB018281882359F056
:1004100085E091E006C0FB018281882321F084EF12
:1004200090E00E94B50381E0089581E008950C9466
:10043000FC0108950C9419021F93CF93DF9300D011
:1004400000D01F92CDB7DEB749835A836B833091BA
:10045000240189819A81311114C0662359F0222325
:1004600049F00E944609182F682F89819A810E94BD
:10047000EF0803C00E941A09182F69817A81812F21
:1004800004C00E94460969817A810F900F900F90F5
:100490000F900F90DF91CF911F910C945210FC019F
:1004A000262F408151816281738184810C941C02CA
:1004B00081E00895CF93DF93EC0160E00E944F024A
:1004C000BE01DF91CF910C941A020E945B110E9431
:1004D000BF030C9498110C94941108950C946D0220
:1004E0000C946E020E94700280E00C94C0030C9485
:1004F0006D020E9490070E9477022FEF84E39CE038
:10050000215080409040E1F700C000000C94971605
:100510000F931F93CF93DF938C0161E00E944F02F2
:10052000EC01B8010E9417028823F1F1B801CE0155
:100530000E94CA148823C1F1B801CE010E94F412AE
:10054000882391F1B801CE010E942614882361F11D
:10055000F8018281882309F1CB358DE5D807C1F0F8
:1005600050F4C115FCE5DF0781F0CF3DDC45A9F46F
:100570000E94700E19C0CC35EDE5DE0761F0CD3577
:10058000DD4559F40E94B30D08C00E9479020CC0E9
:100590000E94BC0D02C00E94BF0DC801DF91CF9127
:1005A0001F910F910C94150280E0DF91CF911F9164
:1005B0000F9108950C946D020E9426150E94C003AD
:1005C0000C94DA02DF92EF92FF920F931F93CF9376
:1005D000DF93E82FF0E0EF5EFD4FD490282F2695B3
:1005E0002695269530E0F901EF54FD4F0491877070
:1005F00010E0082E02C0159507950A94E2F70170E5
:100600001127F901EF55FD4FE490F12C082E02C09F
:10061000F594E7940A94E2F791E0E922FF24F901C6
:10062000EF56FD4FC491D0E002C0D595C7958A958D
:10063000E2F7C170DD270115110519F081EE0E9466
:100640001904E114F10419F086EE0E9419048D2DAD
:100650000E941705EF2819F086EE0E94A104012BD5
:1006600019F081EE0E94A104CD2B51F08CE2DF91B4
:10067000CF911F910F91FF90EF90DF900C94170591
:10068000DF91CF911F910F91FF90EF90DF90089530
:10069000EF92FF920F931F93CF93DF938C01F62E6F
:1006A0008AE0E82EF8018491882309F457C081304C
:1006B00009F042C0E8012196FE018491813031F4B5
:1006C0002196FE0184910E94170539C0823039F4C9
:1006D000E8012296FE0184910E94190430C0833003
:1006E00039F4E8012296FE0184910E94A10427C0FA
:1006F000843029F5E8012296FE01249180E090E003
:1007000030E0205331092A30310560F4E89EA00121
:10071000E99E500D1124C901840F951F2196FE01F9
:100720002491EECF009759F0EFE9FFE03197F1F710
:1007300000C000000197F6CF0E94E202E8018E019E
:100740000F5F1F4F8F2D882309F4ACCFEFE9FFE037
:100750003197F1F700C000008150F5CFDF91CF91C4
:100760001F910F91FF90EF90089560E00C94480363
:1007700008950C94B80381E008950C94BB03089588
:10078000CF93C82F0E94B9038C2F0E94BD03CF9135
:100790000895CF93DF93CDB7DEB72B970FB6F894BC
:1007A000DEBF0FBECDBF4F83588769877A878B879F
:1007B00061110E940C0D9E012F5F3F4F86E0F901F1
:1007C00011928A95E9F785E0FE013796D9010190EB
:1007D0000D928A95E1F789819A814C815D81452B43
:1007E00031F09F3F31F491E08F3F19F403C091E065
:1007F00001C090E090FF09C049815A816B817C81E2
:100800008D819E810E942D0C05C0C9010E94580255
:100810008111F2CF2B960FB6F894DEBF0FBECDBF7D
:10082000DF91CF910895FC01808191810E94880918
:100830000895CF93882309F482C0C82F8238C1F469
:100840000E94261581FD7BC069E380910201909191
:1008500003010E94AB150E94310D2FEF81EE94E051
:10086000215080409040E1F700C0000069E319C0CA
:100870008338F1F40E94261580FD61C063E5809104
:100880000201909103010E94AB150E94310D2FEFE0
:1008900081EE94E0215080409040E1F700C00000DC
:1008A00063E580910201909103010E94AD1544C05F
:1008B0008438C1F40E94261582FD41C067E480910E
:1008C0000201909103010E94AB150E94310D2FEFA0
:1008D00081EE94E0215080409040E1F700C000009C
:1008E00067E4DFCF8CEF8C0F813AD0F46C2F8091CE
:1008F0000201909103010E947515882349F06C2F25
:1009000080910201909103010E94AD150E94310D6A
:100910006C2F80910201909103010E94AB150CC0D5
:1009200080E28C0F883058F4C77081E001C0880FD6
:10093000CA95EAF70E94EF0CCF910C94310DCF913C
:100940000895882309F45BC0682F823879F40E94E7
:10095000261581FF54C069E3809102019091030143
:100960000E94AB150E94310D69E310C08338B1F4C9
:100970000E94261580FF43C063E58091020190919B
:1009800003010E94AB150E94310D63E580910201C5
:10099000909103010E94AD150C94310D843879F4C7
:1009A0000E94261582FF2BC067E48091020190917E
:1009B00003010E94AB150E94310D67E4E7CF8CEF75
:1009C000860F813A18F380E2860F883048F467700A
:1009D00081E001C0880F6A95EAF70E94F50CDCCF30
:1009E0008BE5860F833020F480E090E00C943D1579
:1009F000685A673120F480E090E00C945315089514
:100A00001F93CF93DF93182FEB010E9419042097B7
:100A100041F08FE99FE00197F1F700C000002197B6
:100A2000F6CF812FDF91CF911F910C94A1048933D0
:100A300019F060E070E002C060E570E00C94000521
:100A4000882321F00E94EF0C0C94310D0895882327
:100A500021F00E94F50C0C94310D0895CF92DF9295
:100A6000EF92FF920F931F93CF93DF937C01D62FCA
:100A7000C72FFC011281058102950F700E94E50CC1
:100A80008823B9F01123A9F08C2F807F803421F0C6
:100A900080E28D0F883068F08091C80182FD09C026
:100AA00082E00E94810D0E94E50C91E0D82ED926AB
:100AB00001C0D12CCC2EC2948FE0C8228C2D90E0A6
:100AC0008C30910508F0A6C1FC01EA5AFF4F0C9446
:100AD0000D1D8C2F807FCF70882311F0C295C07FB1
:100AE000112399F0CC2309F481C180E28D0F883065
:100AF00010F0D11104C08C2F0E94EF0C03C08C2F7A
:100B00000E94FF0C0E94310D71C18D2F0E94A10423
:100B1000CC2309F47FC180E28D0F883038F1DD23CA
:100B200029F18C2F0E94050D24C08C2F807FCF705F
:100B3000803211F0C295C07FDD2319F0D130A1F1D0
:100B40003DC08091C80182FF17C0112349F0CC231A
:100B500029F08C2F0E94EF0C0E94310D80E047C1DC
:100B600080E00E94A104CC2309F454C18C2F0E9480
:100B7000F50C0E94310D4EC1112371F0002341F09C
:100B8000013031F40E94120D8C2B0E941A0D42C1CB
:100B90000E94120D8C2B1DC0002319F0013009F4A6
:100BA00039C10E94270D25C0112321F0063008F01D
:100BB00031C10EC0053008F02DC11BC0112361F0FA
:100BC000002331F0F701858180FF10C18F7085838C
:100BD0008C2F0E9420051EC1002359F0D93309F043
:100BE00016C1FFEF07EE13E0F15000401040E1F7AF
:100BF0000CC18C2F0E9427050DC18C2F837009F02A
:100C000047C011110BC12D2F229526952770220F59
:100C1000220F6D2F6F70862F90E0A0E0B0E0022EC3
:100C200004C0880F991FAA1FBB1F0A94D2F7D4FFD4
:100C300010C04FE050E060E070E004C0440F551F6A
:100C4000661F771F2A95D2F740955095609570954D
:100C500003C040E050E0BA01C695C695C3708A0152
:100C60009B01082B192B2A2B3B2BC901B801C23041
:100C700049F058F4C13019F00E940508CFC00E9415
:100C8000F307CCC00E941708C9C00E94F107C6C074
:100C9000112319F08C2F817001C08695882309F4E7
:100CA000BDC02D2F229526952770220F220F6D2F64
:100CB0006F70862F90E0A0E0B0E0022E04C0880F95
:100CC000991FAA1FBB1F0A94D2F7D4FF10C04FE090
:100CD00050E060E070E004C0440F551F661F771FAE
:100CE0002A95D2F7409550956095709503C040E0E5
:100CF00050E0BA01C695C695C3708A019B01082BC6
:100D0000192B2A2B3B2BC901B801C23049F058F4EA
:100D1000C13019F00E94CA0881C00E94B8087EC084
:100D20000E94DC087BC00E942B0878C0CF70112382
:100D300039F08C2F0E9451088D2F0E9420056EC023
:100D40008D2F0E9427058C2F0E94720867C0D23F0A
:100D500021F128F4D03F41F0D13FC1F043C0D33F4F
:100D600019F1D43F79F03EC0112341F0053008F06D
:100D700051C08C2F8F710E9497084CC0063008F02C
:100D800049C0F7CF8091C80182FF18C0112339F004
:100D90008C2F8F710E9451083DC01123C9F38C2FF5
:100DA0008F710E94720836C0112329F08C2F8F7129
:100DB0000E943C082FC00E9437082CC0112349F024
:100DC000CF718C2F0E94510863E08C2F0E94660D1A
:100DD00021C081E00E94810D0230E0F082E00E949B
:100DE000810D18C0112331F0002391F28D2F0E9444
:100DF000190410C0002399F2D93349F41FEF27EEEC
:100E000033E0115020403040E1F700C000008D2F4A
:100E10000E94A10488EF8C0D843020F40E942615D6
:100E20000E94C003DD20C9F00E94E10C80FD15C0C6
:100E3000F70112820E94DB0C0E945108C7010E9438
:100E40004E070E94DB0CDF91CF911F910F91FF9015
:100E5000EF90DF90CF900C947208DF91CF911F91AB
:100E60000F91FF90EF90DF90CF9008950F931F9315
:100E7000CF93DF93EC01688179818A810E94930985
:100E80008C010E94EE080E94DF07B801CE010E948B
:100E90002E05DF91CF911F910F910895CF93DF938E
:100EA000EC01988189812B813C81232B31F08F3F8C
:100EB00031F481E09F3F19F403C081E001C080E07C
:100EC00080FD1DC0CE010E948802811110C00E94C9
:100ED000E50C8823A1F08A81882389F08091C801DC
:100EE00082FD0DC082E0DF91CF910C94810DCE0187
:100EF0000E943607CE01DF91CF910C945A02DF9108
:100F0000CF9108950E940C0D0E940F0D0C94310D8D
:100F100080910201909103010E94AF150C94820709
:100F20000E94FC0C0C948807E92FE295EF704E2F7D
:100F300050E0FA013297EE30F105B0F4EE59FF4F70
:100F40000C940D1D803F91F018F4883E68F40EC09B
:100F5000843F51F40BC0883E48F0813F29F406C01D
:100F600093FB882780F9089580E0089581E0089533
:100F7000FC01808191810E9488090E949407089554
:100F8000CF93DF9300D000D01F92CDB7DEB70F9084
:100F90000F900F900F900F90DF91CF910895CF9306
:100FA000DF9300D000D000D0CDB7DEB726960FB6C5
:100FB000F894DEBF0FBECDBFDF91CF9108950895A5
:100FC00008950C94E0070C94E1070E94E3076093F6
:100FD00051017093520180935301909354010C94EA
:100FE00082070C94E5070F931F9300915101109114
:100FF00052012091530130915401602B712B822BAF
:10100000932B1F910F910C94E5070F931F93009161
:1010100051011091520120915301309154016023EC
:101020007123822393231F910F910C94E5070F9353
:101030001F93009151011091520120915301309161
:10104000540160277127822793271F910F910C94D9
:10105000E5070C94E0070E94290860934D01709306
:101060004E0180934F01909350010C94820760E0F1
:1010700070E0CB010C942B080F931F9341E050E0DC
:1010800060E070E08A019B0104C0000F111F221F65
:10109000331F8A95D2F7C901B8011F910F910C94A3
:1010A0002B080F931F9341E050E060E070E004C014
:1010B000440F551F661F771F8A95D2F780914D0107
:1010C00090914E01A0914F01B09150018A019B0176
:1010D000082B192B2A2B3B2BC901B8011F910F910B
:1010E0000C942B080F931F9341E050E060E070E0F8
:1010F00004C0440F551F661F771F8A95D2F740958D
:1011000050956095709580914D0190914E01A09100
:101110004F01B09150018A019B01082319232A2312
:101120003B23C901B8011F910F910C942B080F9319
:101130001F9341E050E060E070E004C0440F551F91
:10114000661F771F8A95D2F780914D0190914E01CD
:10115000A0914F01B09150018A019B0108271927E6
:101160002A273B27C901B8011F910F910C942B0826
:101170000F931F9300914D0110914E0120914F014B
:1011800030915001602B712B822B932B1F910F916B
:101190000C942B080F931F9300914D0110914E0159
:1011A00020914F01309150016023712382239323BA
:1011B0001F910F910C942B080F931F9300914D01D9
:1011C00010914E0120914F013091500160277127FD
:1011D000822793271F910F910C942B0808952CE0E0
:1011E000929F800D1124E82FE695E695E69587708D
:1011F00051E001C0550F8A95EAF785E0E89FF001BC
:101200001124EB5DFE4F20E030E070E04081CB0127
:10121000022E02C0969587950A94E2F78170819517
:1012200084278523842781932F5F3F4F2530310505
:1012300069F708952CE0929F800D1124682F669520
:1012400066956695982F977085E0689FB001112488
:1012500040E050E080E0FB01E40FF51FEB5DFE4F46
:10126000208130E0092E02C0369527950A94E2F7D6
:1012700021703327042E01C0220F0A94EAF7822B33
:101280004F5F5F4F4530510531F70895BF92CF92C0
:10129000DF92EF92FF920F931F93CF93DF938C0116
:1012A000C0904D01D0904E01E0904F01F090500160
:1012B0008091510190915201A0915301B09154013C
:1012C000C82AD92AEA2AFB2ACFE1D0E0D701C601F1
:1012D0000C2E04C0B695A795979587950A94D2F7DA
:1012E00080FD04C0219790F7B12C07C0BC2EB80137
:1012F0008C2F0E9465100197A9F38B2DDF91CF9160
:101300001F910F91FF90EF90DF90CF90BF900895C5
:10131000CF93DF93EC010E944609BE010E94651045
:10132000DF91CF9108951F93CF93DF93EB019091BD
:101330002401992321F0CB010E94880913C088233E
:1013400049F0CB010E944609182F682FCE010E9458
:10135000EF0804C0CB010E941A09182FBE01812F8B
:101360000E946510DF91CF911F9108951F93CF9335
:10137000DF93C091550116E080915601C81799F08E
:10138000D0E01C9FF0011D9FF00D1124E95AFE4F83
:101390004081518162817381848195810E94CF0750
:1013A0002196C770E9CFDF91CF911F9108954091A9
:1013B0008701509188016091890170918A01809123
:1013C0008B0190918C010C94CF07EF92FF920F93B9
:1013D0001F93CF93DF9380918C0182958F7009F0DA
:1013E00065C080918901882309F460C0809155010E
:1013F000F0905601109187010091880160918A0157
:1014000070918B0191E01F3F09F090E0C0910001C5
:10141000D0910101292F96E0E92E8F1509F446C0DD
:101420006115710521F00F3F21F030E003C031E07C
:1014300001C0322F90E030FD36C0E89EF001E99EF9
:10144000F00D1124DF01A95ABE4F11963C9111975E
:10145000301329C03C91311326C012963C9112974B
:10146000311121C013964D915C911497461B570B77
:101470004C175D07C0F480918C018F708061809360
:101480008C01E45AFE4F80818F708061808387E8F1
:1014900091E00E944E07DF91CF911F910F91FF9035
:1014A000EF900C94B60901968770B7CFDF91CF917A
:1014B0001F910F91FF90EF9008959F92AF92BF926E
:1014C000CF92DF92EF92FF920F931F93CF93DF9310
:1014D000CDB7DEB761970FB6F894DEBF0FBECDBFB4
:1014E0008C0185E0F801DE011D9601900D928A9530
:1014F000E1F7D8011296EC9090918701E091880174
:1015000020918A0130918B012115310531F0EF3F97
:1015100031F481E09F3F19F403C081E001C080E015
:10152000B82FB1709B2E80FD47C1D8014C91119608
:101530005C9111971396AD90BC90149787E8C82ED4
:1015400081E0D82EF0908901B501621B730B2091C8
:10155000000130910101FF2009F4D9C080918C0174
:101560006217730708F095C0282F207F09F052C03A
:101570005E1313C0491311C0FE2CE1100EC08F7012
:10158000806180938C010E94D709C6010E944E079A
:1015900080918C01F80185834DC1AB2831F05F3F0C
:1015A00031F481E04F3F19F403C081E001C080E0D5
:1015B00080FD03C081E08E2502C080E090E0F82F1E
:1015C000F170FF2E80FF1CC08091550120915601C3
:1015D00036E0821709F40BC190E0389FF001399F83
:1015E000F00D1124E95AFE4F6181561306C0608147
:1015F000461303C06281E61203C001968770E9CFEB
:10160000FE2CEE2009F416C180918C01816080933C
:101610008C0154C05E1306C0491304C0E11002C01F
:10162000F80199C0C8010E94B807882361F1EE2033
:1016300051F120918C01822F82958F7090E002975A
:1016400074F0809187019091880198878F83198623
:10165000BB86AA862C87CE0107960E944E0786E09D
:10166000F801A7E8B1E001900D928A95E1F70E9498
:10167000E5090E94D7090AC05E1711F1C8010E944E
:10168000B80781112CC0C8010E944E07FF24F394B3
:10169000D1C0282F207F81F77A2DB98AA88A6E2D94
:1016A00089890E94C00787E891E00E944E0786E082
:1016B000D6011D928A95E9F70E94D709F12CBAC08C
:1016C0004913DCCFE110DACFF8018583C8010E940D
:1016D0004E0786E0D6011D928A95E9F7ABC0EE2051
:1016E00091F220918C01822F82958F7090E0029769
:1016F0000CF4B5CF80918701909188019A838983FA
:101700001B82BD82AC822E83CE010196A6CF6217CA
:10171000730708F044C0FE2CEE2009F4B4CF5E132A
:1017200030C049132EC020918C0120FD21C0822F92
:1017300082958F70482F50E041155105C9F0F8018E
:1017400025834F30510541F08F5F982F9295907F00
:10175000822F8F70892B8583C8010E944E0786E0F7
:10176000F801A7E8B1E001900D928A95E1F73CC03D
:1017700086E0F801A7E8B1E001900D928A95E1F7C3
:1017800059C0C8010E94B807811169CF80918C01AE
:10179000816080938C01C8010E944E074BC07A2D56
:1017A000B98AA88A6E2D89890E94C00786E0D60171
:1017B0001D928A95E9F718C0EE2009F464CFC8019C
:1017C0000E94B807F82E882309F45DCF86E0F8015F
:1017D000A7E8B1E001900D928A95E1F787E891E0E2
:1017E0000E9413040E94E5090E94D70923C04D8777
:1017F0005E878D859E850E948809292F22952F70EE
:10180000223028F49F7039F0811105C00BC02430BC
:1018100028F49F7049F4805E883020F0C8010E944F
:101820004E079F2CF92C06C0D80115969C91907FED
:1018300091F7F8CF8F2D61960FB6F894DEBF0FBEEB
:10184000CDBFDF91CF911F910F91FF90EF90DF906F
:10185000CF90BF90AF909F9008951F93CF93DF9349
:10186000CDB7DEB72C970FB6F894DEBF0FBECDBF55
:101870004F83588769877A878B879C87CE01079625
:101880000E945D0A8823D1F09F8188852A853B8547
:10189000232B31F08F3F31F481E09F3F19F403C0D7
:1018A00081E001C080E080FD47C04F815885698597
:1018B0007A858B859C850E94CF073EC086E0FE011D
:1018C0003796DE01119601900D928A95E1F7FF811E
:1018D000E8856A857B856115710531F0EF3F31F44C
:1018E00081E0FF3F19F403C081E001C080E080FD8A
:1018F00023C02091560130E0C901019687709927D5
:101900004091550150E084179507F1F1F983EA837E
:101910007D836C8396E0929FD001939FB00D11243C
:10192000A95ABE4FFE01319601900D929A95E1F7AA
:10193000809356010E94B60916E08091550190915E
:101940005601891771F1189FC0011124895A9E4FC1
:101950000E945D0A882329F1E09155011E9FF00144
:101960001124E95AFE4F4081518162817381848143
:1019700095810E94CF078091550190E00196877074
:10198000992780935501D9CF0E9490071092560154
:1019900010925501E7E8F1E086E0DF011D928A959B
:1019A000E9F72C960FB6F894DEBF0FBECDBFDF91DE
:1019B000CF911F91089580918D018595859585958D
:1019C000089580918D018770089590918D01977091
:1019D00081E009F480E00895809199010895909143
:1019E0009901892B8093990108958095909199018F
:1019F00089238093990108951092990108959091F7
:101A00009801892B80939801089580959091980171
:101A10008923809398010895109298010895109257
:101A20009701089580918E01089508950C94150DE5
:101A30000C94160D9091C80192FD08C090918E01F2
:101A4000981721F080938E010C94180D08958091C1
:101A50008E01882329F010928E0180E00C94180DDD
:101A60000895E0910201F091030180919901808332
:101A7000E0910201F0910301908180919801892BFE
:101A80008083E0910201F0910301908180919701A0
:101A9000892B808380918E01882381F0E09102015F
:101AA000F09103019081892B8083809102019091B4
:101AB00003010E94691581110E94270D8091020186
:101AC000909103010C9432150C94150D9091C8015E
:101AD00092FD10C098E0899F90011124262B20933D
:101AE0008D010E94510880918D0185958595859580
:101AF0000C94640D0C94510810928D0180E00C94AC
:101B0000640D20918D018095822380938D01982F03
:101B1000977099F430E0482F082E000C550B2417CD
:101B2000350759F09091C80192FD07C085958595BC
:101B300085950E9472080C947C0D08959091C801BF
:101B400092FB222720F9281769F080FB92F99093E5
:101B5000C8018091C7019091C8010E94EC0D82E0FC
:101B60000C94810D08958091C80182FB882780F92B
:101B700091E089270C949E0D81E00C949E0D80E0ED
:101B80000C949E0D6FEF7FEF80E090E00C944C1D65
:101B900080E090E00E94281D21E0893E9E4F09F0E0
:101BA00020E0822F089582E090E00C94201D83E0D5
:101BB00090E00C94201DCF9384E090E00E94201DC3
:101BC000C82F82E290E00E94201D2C2F30E0A90156
:101BD000582BCA01CF910895CF93C92F682F84E065
:101BE00090E00E942E1D6C2F82E290E0CF910C9429
:101BF0002E1DAB01BC018FE090E00C94401DAB01A9
:101C0000BC0183E190E00C94401D60E070E0CB01EA
:101C10000C94FF0D60E070E0CB010E94F90D0C9474
:101C2000050E69EE7EEF80E090E00E944C1D60E0C2
:101C300082E090E00E942E1D60E083E090E00E9430
:101C40002E1D1092510110925201109253011092C8
:101C5000540160E084E090E00E942E1D60E082E28A
:101C600090E00E942E1D60E085E090E00E942E1D15
:101C700060E086E090E00E942E1D6FEF87E090E02C
:101C80000E942E1D40E050E0BA0188E090E00E94E2
:101C9000401D60E08DE090E00E942E1D40E050E08D
:101CA000BA0188E190E00E94401D60E087E190E089
:101CB0000E942E1D40E050E0BA018CE190E00E94AD
:101CC000401D60E070E080E290E00E944C1D40E02A
:101CD00050E0BA0188E190E00E94401D0C940A0E89
:101CE0000C94110E682F8EE090E00C942E1D0E9433
:101CF00056166093A9017093AA018093AB0190934B
:101D0000AC016093A5017093A6018093A701909305
:101D1000A801089585B7806885BF85B7806885BFAD
:101D2000089581E008950C94910E08950C94950EF9
:101D30000C94950E0C94980E0C94950E0C949C0E8D
:101D40000C94950E0E948A0E81E491E10E941C156C
:101D50000E94A00E0C949E0E0E94960E0C94950E5E
:101D60000E9441160E9440120C949A0E6F927F922C
:101D70008F929F92AF92BF92CF92DF92EF92FF929B
:101D80000F931F93CF93DF93CDB7DEB72A970FB68C
:101D9000F894DEBF0FBECDBF0E94551281110E9484
:101DA000770E3BE9832E31E0932E00E010E0C02E49
:101DB000802F0E947F115C01F401619071904F01AE
:101DC0006826792661147104B1F40F5F1F4F053046
:101DD000110569F78FEF89838A831B820E944A1657
:101DE0008160782F9D838C8349815A816B818D819D
:101DF0000E94C9033AC08091AD0181FD0E94881103
:101E0000D12CEE24E394F12CC3018E219F21892B48
:101E100029F10E94930E8823A9F0DE82CF82AE20A2
:101E2000BF2081E0AB2809F480E088870E944A1631
:101E30008160782F9A8789874E815F8168858A853E
:101E40000E94C903000F111FF801E556FE4F808163
:101E50009181E826F926F182E08207C0D394EE0C46
:101E6000FF1CFCE0DF12D0CFB0CF0E94261590916E
:101E70009A018917D1F00E94261580939A012A961B
:101E80000FB6F894DEBF0FBECDBFDF91CF911F918B
:101E90000F91FF90EF90DF90CF90BF90AF909F9009
:101EA0008F907F906F900C94C0032A960FB6F89491
:101EB000DEBF0FBECDBFDF91CF911F910F91FF907D
:101EC000EF90DF90CF90BF90AF909F908F907F90DA
:101ED0006F900895CF93DF930E946A10EC018115F3
:101EE00023E59207A0F5811532E5930708F09EC01F
:101EF000811540E29407C0F4811551E0950708F080
:101F0000CDC0853A910550F48430910508F0C6C0E3
:101F1000019709F0C0C081E090E0C1C0805E9109E6
:101F2000089708F4BBC0B7C0C11581E5D80708F011
:101F300077C0C11520E5D20708F051C0C11530E4C3
:101F4000D30708F4A8C0DF70CE01906AA8C081153D
:101F500046E5940700F5811555E5950708F081C021
:101F6000C11584E5D80708F076C0CE0183709927A3
:101F700021E030E002C0220F331F8A95E2F79C2F48
:101F80009695969540E2949FE0011124C22BD32BA5
:101F9000CE019A6884C081152AE5920780F48115E4
:101FA00039E5930708F066C0811548E5940708F401
:101FB00072C0D82FCC27CE01806F906A70C0905627
:101FC0008115904208F067C08D2F8F710E94FE101E
:101FD000DD27D0628F71AE01582BCA0160C0CE01DF
:101FE00074E0969587957A95E1F7282F23703C2F1A
:101FF000337081E090E002C0880F991F3A95E2F7B4
:102000009C68AC01522B9A019C2F9F7096959695D7
:1020100050E2959FE0011124C9018C2B9D2B3FC0FC
:10202000DC2FCC27CE01816F906A39C0837099274D
:1020300021E030E002C0220F331F8A95E2F79C2F87
:102040009695969580E2989FE0011124C22BD32BA0
:10205000CE019C6824C0DC2FCC27CE01846F906A0F
:102060001EC00E94FE108F7190E0D82FCC27CE01A9
:10207000906215C08F700E94FE1094E0D695C795AF
:102080009A95E1F7CF70D0E0DC2FCC27D0699E0184
:10209000282BC90104C080E090E001C0CE01DF918F
:1020A000CF9108952CE3829FC0011124FC012CE004
:1020B000729FE00DF11D1124E60FF11DEE0FFF1FC1
:1020C000EF5DFE4F8591949108950E9452100E94F9
:1020D0006A0F08958238910569F1B0F48133910552
:1020E00009F46DC048F48932910509F463C08A325D
:1020F000910509F469C008958533910509F455C027
:1021000089339105B9F00895833E910569F138F45A
:10211000803E9105B1F0823E910509F10895863E19
:102120009105A9F1873E9105B9F1843E910509F029
:1021300064C023C02091C70120FD4FC021FD4DC0C8
:1021400008958091C70180FD44C08091C80180FF3F
:1021500044C08091C70184FD42C083EE4DC0809190
:10216000C70182FF38C0F5CF8091C70182FD33C01F
:102170008091C80180FD31C0ECCF8091C80181FF02
:1021800032C08091C70184FD2AC087EE35C080919E
:10219000C70183FF26C0F5CF8091C70183FD21C011
:1021A0008091C80181FD1FC0ECCF8091C70185FDE2
:1021B0001CC01DC08091C70185FD19C016C080914B
:1021C000C70186FD16C017C08091C70186FD13C0E8
:1021D00010C089E311C082EE0FC080EE0DC080E018
:1021E0000BC086EE09C084EE07C089E205C085E316
:1021F00003C08AE201C081E390E008959091C70195
:1022000092FF0DC0282F2871283019F4877F846031
:1022100006C0282F2471243011F48B7F886093FF2F
:102220000DC0282F2871283119F4877E846106C0DB
:10223000282F2471243111F48B7E88612091C801EC
:1022400020FF0DC0382F3871383019F4877F816036
:1022500006C0382F3171313011F48E7F886021FF34
:102260000DC0282F2871283119F4877E816106C09E
:10227000282F2171213111F48E7E886194FD877E93
:10228000089580E008950C94C20D0E9455128FE3CA
:102290009CE90197F1F700C000000E94551280E010
:1022A0000E947F1180FF04C00E9443110C94971676
:1022B00008950C9445110E94C80D811102C00E941E
:1022C000700E0E94D30D8093AD010E94DB0D9093A0
:1022D000C8018093C7010E9459110E94D70D682F31
:1022E00070E080E090E00E94F10760914D017091F4
:1022F0004E0180914F01909150010C942908E82FD4
:10230000F0E0EE0FFF1FED52FE4F808191810895A6
:10231000089580EA8A95F1F7089500C008950C9415
:10232000891108950C9491110C9492110C949111AF
:102330000C949611F894E82FE295EF70F0E031A13B
:10234000282F2F7081E090E001C0880F2A95EAF7CE
:10235000982F9095932391A392A1892B82A378948F
:1023600008950F931F93CF93DF93CDE1D1E089912F
:102370008F3F11F00E949A1181E0C232D807B9F75D
:10238000C1E1D1E00DE111E089918F3F11F00E9490
:102390009A110C171D07C1F7DF91CF911F910F9173
:1023A0000895BF92CF92DF92EF92FF920F931F9307
:1023B000CF93DF938C01C62FD0E0CE01835E9E4F7A
:1023C0006C01FC0190819F3F09F450C0B62EF89437
:1023D000E92FE295EF70F0E081A19F7021E030E0FD
:1023E00001C0220F9A95EAF7822B81A382A1209542
:1023F000282322A378940E948D11E1E1F1E04DE1C0
:1024000051E021E030E0E12CF12C61916F3F89F047
:10241000A62FA295AF70B0E090968C9190E06F706F
:1024200002C0959587956A95E2F780FD02C0C901C3
:1024300002C080E090E0E82AF92A220F331F4E17ED
:102440005F0719F7F60180818F3F11F00E949A1102
:1024500061E0E114F10409F460E08B2D0E948F111A
:10246000CC0FDD1FC00FD11FF982E882DF91CF9121
:102470001F910F91FF90EF90DF90CF90BF90089544
:102480000E94B1118AE0E3EDF1E0DF01982F1D9287
:102490009A95E9F7E9ECF1E0DF011D928A95E9F7F9
:1024A00085E00E94A0120C946502FF920F931F9387
:1024B000CF93DF93CDB7DEB72A970FB6F894DEBF80
:1024C0000FBECDBF8E010F5F1F4F8AE0F801119242
:1024D0008A95E9F7F12C6F2DC8010E94D111F39470
:1024E000F5E0FF12F8CF4AE050E0B80189EC91E046
:1024F0000E94131DFF24F394009709F4F12C892BFB
:1025000041F08AE0F801A9ECB1E001900D928A95C2
:10251000E1F72F2D45E063ED71E089EC91E00E9439
:10252000A1120E946B028F2D2A960FB6F894DEBF7F
:102530000FBECDBFDF91CF911F910F91FF900895F6
:102540000895FF920F931F93CF93DF93F82E092FD7
:10255000162FD72FC42F222349F081E08093B0019A
:102560000E944A169093AF018093AE018091B00112
:102570008823D9F08091AE019091AF010E9462163C
:10258000059798F0EF2DF02FA12FBD2F80E090E060
:102590004C2F50E08417950734F4219131912D93FD
:1025A0003D930196F7CF1092B001DF91CF911F912B
:1025B0000F91FF9008950E94E6170E94B00E0C94B0
:1025C000F2170E94F6170E94B60E0C9410180E9483
:1025D000D0150E94CD170E94A20E0E94DB120E940D
:1025E000E1120E94AC0EFBCFCF93DF93EC01FB0115
:1025F0008281882309F426C1C430FDE5DF0760F439
:10260000CB3F9CE5D90768F49E0122503C4524311C
:10261000310508F018C105C0C236EDE5DE0709F046
:1026200012C10E94DB0D9093C8018093C701C03195
:10263000FCE5DF0709F4CAC008F041C0C8309CE5DA
:10264000D90709F4A4C0F0F4C430FCE5DF0709F4AD
:102650008CC068F4C2309CE5D90709F482C0C3304D
:10266000DC4509F0E5C08091C7018260DFC0C6305B
:10267000FCE5DF0709F483C008F085C08091C7013D
:102680008860D4C0CC309CE5D90709F490C068F4C8
:10269000CA30FCE5DF0709F47EC008F084C00E9460
:1026A00090078091C7018068C1C0CE309CE5D907F2
:1026B00009F481C008F086C08091C70194C0CD3F65
:1026C000FCE5DF0709F47BC038F5C4319CE5D90788
:1026D00009F49AC058F4C231FCE5DF0709F47AC066
:1026E00008F07EC08091C7018F7BA0C0CB3F9CE5E6
:1026F000D907F1F108F03FC0C531DC4509F098C0B9
:102700008091C70182FB222720F991E0922790FB5C
:1027100082F990FB83F98AC0C1308DE5D80709F4AE
:1027200067C050F48091C801CF3FECE5DE07C1F1EE
:1027300008F05BC08D7F65C0C3308DE5D80709F414
:1027400071C008F46DC0C236DD4509F071C08091DA
:10275000C70184FB222720F991E0922790FB84F99E
:1027600065C08091C701816061C08091C70116C0BA
:102770008091C80116C08091C801826042C08091DA
:10278000C701806153C08091C70180624FC08091B2
:10279000C70180644BC08091C7018860846046C0D7
:1027A000826081602EC08091C7018E7F3FC0809182
:1027B000C7018D7F3BC08091C701877F37C0809163
:1027C000C80114C08091C7018F7E30C08091C701BD
:1027D0008F7D2CC00E9490078091C7018F7726C003
:1027E0008091C701877F8B7F21C08D7F8E7F09C03D
:1027F0008091C801982F909591708E7F892B90FBC6
:1028000081F98093C80114C00E9490078091C7018C
:1028100087FB222720F991E0922790FB87F906C0D9
:1028200081E001C080E00E94720E02C08093C70167
:102830008091C7019091C8010E94EC0D0E94900701
:1028400080E001C081E0DF91CF910895CF93DF93C5
:1028500086319C4541F5EB010E94EC0C982F8A8152
:102860002091020130910301882379F09A7A81E066
:1028700009F480E08093B101911102C069E201C0C6
:1028800065E3C9010E94AB150AC08091B1018111B5
:1028900002C069E201C065E3C9010E94AD150E9452
:1028A000310D80E001C081E0DF91CF9108950F9359
:1028B0001F93CF93DF93C42FD22FFC0182818823F3
:1028C000C9F04093B4010E944A169093B3018093DB
:1028D000B20180E28C0F883008F057C0C77081E0E9
:1028E00001C0880FCA95EAF7DF91CF911F910F9130
:1028F0000C9420058091B401481330C08091B2013E
:102900009091B3010E946216883C910538F510E25F
:102910001D0FCD17B9F080E28C0F883040F4C770DE
:1029200081E001C0880FCA95EAF70E942705183098
:1029300028F581E09D2F977001C0880F9A95EAF7DE
:102940000E942005802F0E9417051830F0F4D770E0
:1029500081E001C0880FDA95EAF70AC080E28C0FA7
:10296000883098F4C77081E001C0880FCA95EAF7F3
:10297000DF91CF911F910F910C942705802FDF914C
:10298000CF911F910F910C941705DF91CF911F915B
:102990000F9108950F939C01CB01243F4CE5340720
:1029A00031F188F4293DFCE53F07D9F02A3D4CE59B
:1029B000340779F1283D3C45A9F506E221EE41EEC8
:1029C00068ED7CE52BC0263FFCE53F07E1F0A8F071
:1029D000273F3C4539F507E225EE46EE67EF7CE5FB
:1029E0001DC007E225EE45EE69ED7CE517C006E265
:1029F00021EE40EE64EF7CE511C007E225EE44EEE7
:102A000065EF7CE50BC006E221EE42EE66EF7CE569
:102A100005C008E221E045EE6AED7CE50E9457140E
:102A200080E008C0FC018281882319F01092B40173
:102A300001C081E00F9108959093230180932201BA
:102A400008959093BA018093B9010895E091B90176
:102A5000F091BA01309721F00190F081E02D0994B6
:102A600080E00895E091B901F091BA01309721F02A
:102A70000280F381E02D099408952091B7013091EF
:102A8000B8012817390771F09093B8018093B70106
:102A9000E091B901F091BA01309721F00680F781F9
:102AA000E02D099408952091B5013091B6012817C1
:102AB000390771F09093B6018093B501E091B901A7
:102AC000F091BA01309721F00084F185E02D09944E
:102AD0000895FC01329697E080E0915029F0219111
:102AE0002223D9F38F5FF9CF0895662349F0FC01C3
:102AF000329608962191621729F0E817F907D1F765
:102B000080E0089581E008959C01FC0132969FEFDA
:102B100080E04191461789F09F3F19F4411101C0AF
:102B2000982F8F5F8630A9F79F3F39F0F901E90FA1
:102B3000F11D97FDFA956283089508959C012A5F1F
:102B40003F4FFC014281461301C012820196821759
:102B50009307B9F708950C9484150C949E1502966A
:102B600026E0FC0111922A95E9F7089508950C9446
:102B7000B61583E08093BB010C94B715811102C098
:102B800081E001C082E08093BB010C94B7150C94E6
:102B9000BE1581E08093BB010C94B7150C94C91548
:102BA00008958091E501843031F10E947202109203
:102BB000BC0120E488E190E00FB6F894A8958093DA
:102BC00060000FBE2093600083B7817F846083BF65
:102BD00083B7816083BF7894889583B78E7F83BFE6
:102BE0000FB6F894A895809160008861809360008A
:102BF000109260000FBE089508950C94FC15CF93B9
:102C00000E94FD150E9455120E94FC15C0E08C2FF9
:102C10000E947F11892B29F4CF5FC530C1F780E076
:102C200001C081E0CF9108950E9490070C94DC02CE
:102C30001F920F920FB60F9211248F939F93AF9311
:102C4000BF938091BC01811113C08091DD019091EF
:102C5000DE01A091DF01B091E0014196A11DB11DFF
:102C60008093DD019093DE01A093DF01B093E0013A
:102C7000BF91AF919F918F910F900FBE0F901F90BA
:102C8000189582E084BD93E095BD9AEF97BD80933F
:102C90006E0008952FB7F8948091DD019091DE01C8
:102CA000A091DF01B091E0012FBF08952FB7F894F4
:102CB0006091DD017091DE018091DF019091E00172
:102CC0002FBF08959C014FB7F8948091DD0190913A
:102CD000DE01A091DF01B091E0014FBF821B930B99
:102CE000089578941F920F920FB60F9211248F932C
:102CF0009F93AF93BF938091DD019091DE01A091EE
:102D0000DF01B091E0010196A11DB11D8093DD01AD
:102D10009093DE01A093DF01B093E001BF91AF91EA
:102D20009F918F910F900FBE0F901F90189587E77E
:102D300097E790930108809300089AE088E10FB626
:102D4000F894A895809360000FBE90936000FFCF29
:102D50008091C501089508950895CF93DF9321E0F0
:102D60002093E9002FEF3091E800215035FD06C097
:102D700035ED3A95F1F700002111F5CF2091E800EB
:102D800025FF14C0EC0140E050E068E070E00E94D4
:102D90006F188091E8008E778093E80088E0FE014C
:102DA000ADEBB1E001900D928A95E1F7DF91CF9103
:102DB0000895089508958091E401811109C00E9449
:102DC000001A0E945D1A8091E20084608093E20004
:102DD00008951092E40108950C94CE156091E101DC
:102DE00081E0611101C080E00C94B9159091E5017A
:102DF00081E0943009F080E06091E1010C94BE150F
:102E000042E061EC81E00E9479199091E50181E056
:102E1000943009F080E06091E1010C94C715809135
:102E2000E701833009F461C030F4813071F0823001
:102E300009F49AC008958A3009F486C08B3009F4E9
:102E40006CC0893009F0A8C020C08091E601813AA9
:102E500009F0A2C08091E800877F8093E80080910C
:102E6000EA019091EB01892B21F468E08DEB91E070
:102E700003C060E080E090E070E00E94BA188091AA
:102E8000E8008B778093E80008958091E601813215
:102E900009F082C08091EA019091EB01892B09F041
:102EA0007BC08091E800877F8093E8008091E800F4
:102EB00082FD05C08091E5018111F8CF6DC02091A0
:102EC000F3008091F20090E0922B029731F4809110
:102ED000F100813011F0863021F48091F10080936F
:102EE000C5018091E8008B7753C08091E601813A5B
:102EF00009F052C08091EA019091EB01892B09F011
:102F00004BC08091E800877F8093E8008091E800C3
:102F100080FFFCCF8091100136C08091E6018132A4
:102F2000D9F58091EA019091EB01892BA9F5809167
:102F3000E800877F8093E8000E94AE198091E80145
:102F4000809310010C9490078091E601813221F565
:102F50008091E800877F8093E8000E94AE198091FD
:102F6000E9018093C60108958091E601813AA1F4B8
:102F70008091E800877F8093E8008091E80080FFDF
:102F8000FCCF8091C6018093F1008091E8008E779C
:102F90008093E8000C94AE19089584B7877F84BFAE
:102FA0000FB6F894A89580916000886180936000C6
:102FB000109260000FBE90E080E80FB6F894809306
:102FC0006100909361000FBE0C94C9150E94001A15
:102FD0000E945D1AE2EEF0E0808184608083789444
:102FE0000C94F21C84E091E00C9421158091E50191
:102FF0008530A9F48091E501853079F40E94D115DE
:103000008091E3018823B1F30E94FF15882391F397
:103010000E9459180E949007EDCF0C941416089541
:1030200008950C941318292F332723303105C1F04C
:1030300058F42130310579F02230310591F582E2E2
:1030400090E021EF32E031C021323105E1F022324F
:10305000310501F126C082E190E023E133E025C093
:1030600099278130910549F028F00297D1F4E1ECDD
:10307000F2E005C0EDEEF2E002C0EBEDF2E084918B
:1030800090E09F0112C0672B61F489E090E023E09B
:1030900033E00BC0672B29F480E490E025E233E0B5
:1030A00004C080E090E020E030E0FA01318320832A
:1030B000089580E189BD82E189BD09B400FEFDCF9C
:1030C0008091D8008F7D8093D8008091E00082604D
:1030D0008093E0008091E00081FDFCCF0895CF92C5
:1030E000DF92EF92FF920F931F93CF93DF93EC0148
:1030F0008B017A010E94CD19811133C0E114F104D2
:1031000039F0F70180819181081B190BC80FD91F75
:10311000C12CD12C0115110519F18091E80085FD14
:1031200016C08091E8008E778093E800E114F104E6
:1031300049F0F70180819181C80ED91ED182C082E9
:1031400085E00FC00E94CD19882321F30AC0899120
:103150008093F10001501109FFEFCF1ADF0ADACF97
:1031600080E0DF91CF911F910F91FF90EF90DF9062
:10317000CF9008952091EC013091ED01261737078B
:1031800048F06115710539F42091E8002E772093FD
:10319000E80001C0B901FC0120E06115710579F179
:1031A0008091E5018823F1F18530F1F18091E8000B
:1031B00083FD3CC08091E80082FD2EC08091E80034
:1031C00080FFEBCF2091F3008091F20090E0922BF2
:1031D0006115710551F08830910538F421912093E3
:1031E000F100615071090196F3CF21E0089709F0D1
:1031F00020E08091E8008E778093E800CECF211107
:10320000CFCF0AC08091E501882361F0853061F05D
:103210008091E80083FD0AC08091E80082FFF2CF30
:1032200080E0089582E0089583E0089581E00895A4
:103230002091EC013091ED012617370748F0611518
:10324000710539F42091E8002E772093E80001C041
:10325000B901FC0120E06115710591F18091E50152
:10326000882309F440C0853009F43FC08091E8000C
:1032700083FD3DC08091E80082FD2FC08091E80071
:1032800080FFE9CF2091F3008091F20090E0922B33
:103290006115710559F08830910540F4249120930F
:1032A000F1003196615071090196F2CF21E0089743
:1032B00009F020E08091E8008E778093E800CBCF82
:1032C0002111CCCF0AC08091E501882361F08530BF
:1032D00061F08091E80083FD0AC08091E80082FFE0
:1032E000F2CF80E0089582E0089583E0089581E0C0
:1032F0000895982F973068F59093E900981739F062
:103300007091EC002091ED005091F00003C0242F4B
:10331000762F50E021FD02C09F5FECCF3091EB0093
:103320003E7F3093EB003091ED003D7F3093ED0018
:103330003091EB0031603093EB007093EC00209300
:10334000ED005093F0002091EE0027FDE5CF80E0E6
:1033500008958F708093E90081E008958091E601DF
:1033600087FF11C08091E80082FD05C08091E501D2
:103370008111F8CF11C08091E8008B770BC080914C
:10338000E501882349F08091E80080FFF8CF809123
:10339000E8008E778093E80008952091E400309152
:1033A000E50095E64091EC00842F817040FF23C03A
:1033B0008091E80080FD1DC08091E501882399F08F
:1033C000853099F08091EB0085FD11C04091E400BB
:1033D0005091E5002417350729F3915011F09A0117
:1033E000E1CF84E0089582E0089583E0089581E0CC
:1033F000089580E008954091E80042FFDDCF0895F0
:103400000E946E1A0E94761AE0EEF0E080818160E0
:103410008083E8EDF0E080818F77808319BCA7ED91
:10342000B0E08C918E7F8C9380818F7E8083109210
:10343000E40108950F931F93CF93DF930E946E1AB8
:103440000E94761AC8EDD0E088818F7788838881C2
:103450008068888388818F7D888319BC1092E501FC
:103460001092E1011092E3011092E20100EE10E0EF
:10347000F80180818B7F808388818160888342E02E
:1034800060E080E00E947919E1EEF0E080818E7FBB
:103490008083E2EEF0E080818160808380818860BB
:1034A0008083F80180818E7F80838881806188831A
:1034B000DF91CF911F910F910895E8EDF0E08081A9
:1034C0008F7E8083E7EDF0E080818160808384E0FF
:1034D00082BF81E08093E4010C941A1AE8EDF0E0D9
:1034E00080818E7F80831092E20008951092DA002E
:1034F0001092E10008951F920F920FB60F921124BF
:103500002F933F934F935F936F937F938F939F93EB
:10351000AF93BF93EF93FF938091E10082FF0BC0C5
:103520008091E20082FF07C08091E1008B7F809351
:10353000E1000E94F11C8091DA0080FF1FC08091A1
:10354000D80080FF1BC08091DA008E7F8093DA0064
:103550008091D90080FF0DC080E189BD82E189BDE5
:1035600009B400FEFDCF81E08093E5010E94DB16E7
:1035700005C019BC1092E5010E94E9168091E10096
:1035800080FF19C08091E20080FF15C08091E200A9
:103590008E7F8093E2008091E20080618093E20060
:1035A0008091D80080628093D80019BC85E0809318
:1035B000E5010E94EE168091E10084FF30C0809109
:1035C000E20084FF2CC080E189BD82E189BD09B49D
:1035D00000FEFDCF8091D8008F7D8093D800809130
:1035E000E1008F7E8093E1008091E2008F7E8093E6
:1035F000E2008091E20081608093E2008091E1012D
:10360000882311F084E007C08091E30087FD02C0A9
:1036100081E001C083E08093E5010E94F61680916D
:10362000E10083FF29C08091E20083FF25C08091E3
:10363000E100877F8093E10082E08093E5011092B2
:10364000E1018091E1008E7F8093E1008091E200B2
:103650008E7F8093E2008091E20080618093E2009F
:1036600042E060E080E00E9479198091F00088607B
:103670008093F0000E94EC16FF91EF91BF91AF9103
:103680009F918F917F916F915F914F913F912F917A
:103690000F900FBE0F901F9018951F920F920FB6AC
:1036A0000F9211242F933F934F935F936F937F93C8
:1036B0008F939F93AF93BF93CF93DF93EF93FF933A
:1036C000C091E900CF708091EC00D82FD17080FDBF
:1036D000D0E81092E9008091F000877F8093F0009D
:1036E00078940E94911B1092E9008091F00088600C
:1036F0008093F000CD2BCF70C093E900FF91EF9144
:10370000DF91CF91BF91AF919F918F917F916F91F9
:103710005F914F913F912F910F900FBE0F901F908F
:1037200018951F93CF93DF93CDB7DEB7AA970FB647
:10373000F894DEBF0FBECDBFE6EEF1E08091F10060
:10374000819321E0EE3EF207C9F70E940F178091A6
:10375000E80083FF2EC18091E6019091E701492F97
:1037600050E04A30510508F024C1FA01E059FF4FFA
:103770000C940D1D803821F0823809F01AC108C060
:103780008091E2019091E301992389F082600FC05A
:103790008091EA018F70873008F00BC18093E900B7
:1037A0008091EB0085FB882780F91092E9009091C9
:1037B000E800977F9093E8008093F1001092F10069
:1037C000D1C0282F2D7F09F0F4C0882319F0823052
:1037D00061F0EFC08091E801813009F0EAC09330D8
:1037E00009F080E08093E3012EC08091E80181110F
:1037F0002AC08091EA018F702FEF280F263008F041
:10380000D8C08093E9002091EB0020FF1CC09330CA
:1038100021F48091EB00806214C09091EB009061E4
:103820009093EB0021E030E0A90102C0440F551F46
:103830008A95E2F74093EA001092EA008091EB004B
:1038400088608093EB001092E9008091E800877F08
:103850008093E8000E94AE19ACC08111AAC01091FB
:10386000E8011F778091E3008078812B8093E3004B
:103870008091E800877F8093E8000E94AE198091D4
:10388000E80080FFFCCF8091E30080688093E30034
:10389000111102C082E001C083E08093E50189C07C
:1038A0008058823008F085C08091E8019091E9014C
:1038B0008C3D53E0950779F583E08A838AE289831A
:1038C0004FB7F894DE01139620E03EE051E2E32F7B
:1038D000F0E050935700E49120FF03C0E295EF70B1
:1038E0003F5FEF708E2F90E0EA3010F0C79601C076
:1038F000C0968D939D932F5F243149F74FBF8091E0
:10390000E800877F8093E8006AE270E0CE010196CC
:103910000E94BA1816C06091EA017091EB01AE01E5
:103920004F5F5F4F0E941118BC01892B09F441C001
:103930009091E800977F9093E80089819A810E9496
:1039400018198091E8008B778093E80032C08038A6
:1039500081F58091E800877F8093E8008091E10104
:103960008093F1008091E8008E7772CF811121C0A1
:103970008091E8019091E90199270297D4F4809110
:10398000E800877F8093E8008091E8018093E1015F
:103990000E94AE198091E101811106C08091E3007F
:1039A00087FD02C081E001C084E08093E5010E94B0
:1039B00000178091E80083FF0AC08091E800877FAC
:1039C0008093E8008091EB0080628093EB00AA96E0
:1039D0000FB6F894DEBF0FBECDBFDF91CF911F9120
:1039E00008950895CF938091E5018823A1F0C091B7
:1039F000E900CF709091EC00892F817090FD80E8F4
:103A0000C82B1092E9008091E80083FD0E94911B71
:103A1000CF70C093E900CF910895EE0FFF1F05907E
:103A2000F491E02D0994FB01DC0104C08D9101901B
:103A3000801921F441505040C8F7881B990B089514
:103A4000F999FECF92BD81BDF89A992780B5089566
:103A5000A8E1B0E042E050E00C94541D262FF99903
:103A6000FECF92BD81BDF89A019700B4021639F0DD
:103A70001FBA20BD0FB6F894FA9AF99A0FBE0895AE
:103A80000396272F0E942F1D0E942E1D252F0E9476
:103A90002F1D242F0C942F1D0196272F0E942F1DC0
:103AA0000C942E1DDC01CB01FC01F999FECF06C060
:103AB000F2BDE1BDF89A319600B40D9241505040EC
:083AC000B8F70895F894FFCF58
:103AC800C8008F01A816AD16D916DA16AB16AC16B3
:103AD800013435366667F6F73091929394C6F5F05F
:023AE800F1F4F7
:00000001FF
